{
  "contractName": "BNUGToken",
  "abi": [
    {
      "inputs": [
        {
          "internalType": "uint256",
          "name": "_totalSupply",
          "type": "uint256"
        }
      ],
      "stateMutability": "nonpayable",
      "type": "constructor"
    },
    {
      "anonymous": false,
      "inputs": [
        {
          "indexed": true,
          "internalType": "address",
          "name": "owner",
          "type": "address"
        },
        {
          "indexed": true,
          "internalType": "address",
          "name": "spender",
          "type": "address"
        },
        {
          "indexed": false,
          "internalType": "uint256",
          "name": "value",
          "type": "uint256"
        }
      ],
      "name": "Approval",
      "type": "event"
    },
    {
      "anonymous": false,
      "inputs": [
        {
          "indexed": true,
          "internalType": "address",
          "name": "previousOwner",
          "type": "address"
        },
        {
          "indexed": true,
          "internalType": "address",
          "name": "newOwner",
          "type": "address"
        }
      ],
      "name": "OwnershipTransferred",
      "type": "event"
    },
    {
      "anonymous": false,
      "inputs": [
        {
          "indexed": true,
          "internalType": "address",
          "name": "from",
          "type": "address"
        },
        {
          "indexed": true,
          "internalType": "address",
          "name": "to",
          "type": "address"
        },
        {
          "indexed": false,
          "internalType": "uint256",
          "name": "value",
          "type": "uint256"
        }
      ],
      "name": "Transfer",
      "type": "event"
    },
    {
      "inputs": [
        {
          "internalType": "address",
          "name": "owner",
          "type": "address"
        },
        {
          "internalType": "address",
          "name": "spender",
          "type": "address"
        }
      ],
      "name": "allowance",
      "outputs": [
        {
          "internalType": "uint256",
          "name": "",
          "type": "uint256"
        }
      ],
      "stateMutability": "view",
      "type": "function",
      "constant": true
    },
    {
      "inputs": [
        {
          "internalType": "address",
          "name": "spender",
          "type": "address"
        },
        {
          "internalType": "uint256",
          "name": "amount",
          "type": "uint256"
        }
      ],
      "name": "approve",
      "outputs": [
        {
          "internalType": "bool",
          "name": "",
          "type": "bool"
        }
      ],
      "stateMutability": "nonpayable",
      "type": "function"
    },
    {
      "inputs": [
        {
          "internalType": "address",
          "name": "account",
          "type": "address"
        }
      ],
      "name": "balanceOf",
      "outputs": [
        {
          "internalType": "uint256",
          "name": "",
          "type": "uint256"
        }
      ],
      "stateMutability": "view",
      "type": "function",
      "constant": true
    },
    {
      "inputs": [
        {
          "internalType": "uint256",
          "name": "amount",
          "type": "uint256"
        }
      ],
      "name": "burn",
      "outputs": [],
      "stateMutability": "nonpayable",
      "type": "function"
    },
    {
      "inputs": [
        {
          "internalType": "address",
          "name": "account",
          "type": "address"
        },
        {
          "internalType": "uint256",
          "name": "amount",
          "type": "uint256"
        }
      ],
      "name": "burnFrom",
      "outputs": [],
      "stateMutability": "nonpayable",
      "type": "function"
    },
    {
      "inputs": [],
      "name": "decimals",
      "outputs": [
        {
          "internalType": "uint8",
          "name": "",
          "type": "uint8"
        }
      ],
      "stateMutability": "view",
      "type": "function",
      "constant": true
    },
    {
      "inputs": [
        {
          "internalType": "address",
          "name": "spender",
          "type": "address"
        },
        {
          "internalType": "uint256",
          "name": "subtractedValue",
          "type": "uint256"
        }
      ],
      "name": "decreaseAllowance",
      "outputs": [
        {
          "internalType": "bool",
          "name": "",
          "type": "bool"
        }
      ],
      "stateMutability": "nonpayable",
      "type": "function"
    },
    {
      "inputs": [
        {
          "internalType": "address",
          "name": "spender",
          "type": "address"
        },
        {
          "internalType": "uint256",
          "name": "addedValue",
          "type": "uint256"
        }
      ],
      "name": "increaseAllowance",
      "outputs": [
        {
          "internalType": "bool",
          "name": "",
          "type": "bool"
        }
      ],
      "stateMutability": "nonpayable",
      "type": "function"
    },
    {
      "inputs": [],
      "name": "name",
      "outputs": [
        {
          "internalType": "string",
          "name": "",
          "type": "string"
        }
      ],
      "stateMutability": "view",
      "type": "function",
      "constant": true
    },
    {
      "inputs": [],
      "name": "owner",
      "outputs": [
        {
          "internalType": "address",
          "name": "",
          "type": "address"
        }
      ],
      "stateMutability": "view",
      "type": "function",
      "constant": true
    },
    {
      "inputs": [],
      "name": "renounceOwnership",
      "outputs": [],
      "stateMutability": "nonpayable",
      "type": "function"
    },
    {
      "inputs": [],
      "name": "symbol",
      "outputs": [
        {
          "internalType": "string",
          "name": "",
          "type": "string"
        }
      ],
      "stateMutability": "view",
      "type": "function",
      "constant": true
    },
    {
      "inputs": [],
      "name": "totalSupply",
      "outputs": [
        {
          "internalType": "uint256",
          "name": "",
          "type": "uint256"
        }
      ],
      "stateMutability": "view",
      "type": "function",
      "constant": true
    },
    {
      "inputs": [
        {
          "internalType": "address",
          "name": "recipient",
          "type": "address"
        },
        {
          "internalType": "uint256",
          "name": "amount",
          "type": "uint256"
        }
      ],
      "name": "transfer",
      "outputs": [
        {
          "internalType": "bool",
          "name": "",
          "type": "bool"
        }
      ],
      "stateMutability": "nonpayable",
      "type": "function"
    },
    {
      "inputs": [
        {
          "internalType": "address",
          "name": "sender",
          "type": "address"
        },
        {
          "internalType": "address",
          "name": "recipient",
          "type": "address"
        },
        {
          "internalType": "uint256",
          "name": "amount",
          "type": "uint256"
        }
      ],
      "name": "transferFrom",
      "outputs": [
        {
          "internalType": "bool",
          "name": "",
          "type": "bool"
        }
      ],
      "stateMutability": "nonpayable",
      "type": "function"
    },
    {
      "inputs": [
        {
          "internalType": "address",
          "name": "newOwner",
          "type": "address"
        }
      ],
      "name": "transferOwnership",
      "outputs": [],
      "stateMutability": "nonpayable",
      "type": "function"
    },
    {
      "inputs": [
        {
          "internalType": "address",
          "name": "_token",
          "type": "address"
        },
        {
          "internalType": "address",
          "name": "_to",
          "type": "address"
        },
        {
          "internalType": "uint256",
          "name": "amount",
          "type": "uint256"
        }
      ],
      "name": "returnERC20",
      "outputs": [
        {
          "internalType": "bool",
          "name": "success",
          "type": "bool"
        }
      ],
      "stateMutability": "nonpayable",
      "type": "function"
    }
  ],
  "bytecode": "0x60806040523480156200001157600080fd5b50604051620027c6380380620027c6833981810160405281019062000037919062000428565b6040518060400160405280601d81526020017f426c6f636b636861696e204e69676572696120557365722047726f75700000008152506040518060400160405280600481526020017f424e5547000000000000000000000000000000000000000000000000000000008152508160039080519060200190620000bb92919062000361565b508060049080519060200190620000d492919062000361565b505050620000f7620000eb6200011060201b60201c565b6200011860201b60201c565b620001093382620001de60201b60201c565b506200061a565b600033905090565b6000600560009054906101000a900473ffffffffffffffffffffffffffffffffffffffff16905081600560006101000a81548173ffffffffffffffffffffffffffffffffffffffff021916908373ffffffffffffffffffffffffffffffffffffffff1602179055508173ffffffffffffffffffffffffffffffffffffffff168173ffffffffffffffffffffffffffffffffffffffff167f8be0079c531659141344cd1fd0a4f28419497f9722a3daafe3b4186f6b6457e060405160405180910390a35050565b600073ffffffffffffffffffffffffffffffffffffffff168273ffffffffffffffffffffffffffffffffffffffff16141562000251576040517f08c379a000000000000000000000000000000000000000000000000000000000815260040162000248906200048c565b60405180910390fd5b62000265600083836200035760201b60201c565b8060026000828254620002799190620004dc565b92505081905550806000808473ffffffffffffffffffffffffffffffffffffffff1673ffffffffffffffffffffffffffffffffffffffff1681526020019081526020016000206000828254620002d09190620004dc565b925050819055508173ffffffffffffffffffffffffffffffffffffffff16600073ffffffffffffffffffffffffffffffffffffffff167fddf252ad1be2c89b69c2b068fc378daa952ba7f163c4a11628f55a4df523b3ef83604051620003379190620004ae565b60405180910390a362000353600083836200035c60201b60201c565b5050565b505050565b505050565b8280546200036f9062000543565b90600052602060002090601f016020900481019282620003935760008555620003df565b82601f10620003ae57805160ff1916838001178555620003df565b82800160010185558215620003df579182015b82811115620003de578251825591602001919060010190620003c1565b5b509050620003ee9190620003f2565b5090565b5b808211156200040d576000816000905550600101620003f3565b5090565b600081519050620004228162000600565b92915050565b6000602082840312156200043b57600080fd5b60006200044b8482850162000411565b91505092915050565b600062000463601f83620004cb565b91506200047082620005d7565b602082019050919050565b620004868162000539565b82525050565b60006020820190508181036000830152620004a78162000454565b9050919050565b6000602082019050620004c560008301846200047b565b92915050565b600082825260208201905092915050565b6000620004e98262000539565b9150620004f68362000539565b9250827fffffffffffffffffffffffffffffffffffffffffffffffffffffffffffffffff038211156200052e576200052d62000579565b5b828201905092915050565b6000819050919050565b600060028204905060018216806200055c57607f821691505b60208210811415620005735762000572620005a8565b5b50919050565b7f4e487b7100000000000000000000000000000000000000000000000000000000600052601160045260246000fd5b7f4e487b7100000000000000000000000000000000000000000000000000000000600052602260045260246000fd5b7f45524332303a206d696e7420746f20746865207a65726f206164647265737300600082015250565b6200060b8162000539565b81146200061757600080fd5b50565b61219c806200062a6000396000f3fe608060405234801561001057600080fd5b506004361061010b5760003560e01c806370a08231116100a257806395d89b411161007157806395d89b41146102ba578063a457c2d7146102d8578063a9059cbb14610308578063dd62ed3e14610338578063f2fde38b146103685761010b565b806370a0823114610246578063715018a61461027657806379cc6790146102805780638da5cb5b1461029c5761010b565b806323d49a3e116100de57806323d49a3e146101ac578063313ce567146101dc57806339509351146101fa57806342966c681461022a5761010b565b806306fdde0314610110578063095ea7b31461012e57806318160ddd1461015e57806323b872dd1461017c575b600080fd5b610118610384565b60405161012591906118eb565b60405180910390f35b61014860048036038101906101439190611553565b610416565b60405161015591906118d0565b60405180910390f35b610166610434565b6040516101739190611aed565b60405180910390f35b61019660048036038101906101919190611504565b61043e565b6040516101a391906118d0565b60405180910390f35b6101c660048036038101906101c19190611504565b610536565b6040516101d391906118d0565b60405180910390f35b6101e46107f8565b6040516101f19190611b08565b60405180910390f35b610214600480360381019061020f9190611553565b610801565b60405161022191906118d0565b60405180910390f35b610244600480360381019061023f91906115b8565b6108ad565b005b610260600480360381019061025b919061149f565b6108c1565b60405161026d9190611aed565b60405180910390f35b61027e610909565b005b61029a60048036038101906102959190611553565b610991565b005b6102a4610a0c565b6040516102b1919061188c565b60405180910390f35b6102c2610a36565b6040516102cf91906118eb565b60405180910390f35b6102f260048036038101906102ed9190611553565b610ac8565b6040516102ff91906118d0565b60405180910390f35b610322600480360381019061031d9190611553565b610bb3565b60405161032f91906118d0565b60405180910390f35b610352600480360381019061034d91906114c8565b610bd1565b60405161035f9190611aed565b60405180910390f35b610382600480360381019061037d919061149f565b610c58565b005b60606003805461039390611c51565b80601f01602080910402602001604051908101604052809291908181526020018280546103bf90611c51565b801561040c5780601f106103e15761010080835404028352916020019161040c565b820191906000526020600020905b8154815290600101906020018083116103ef57829003601f168201915b5050505050905090565b600061042a610423610d50565b8484610d58565b6001905092915050565b6000600254905090565b600061044b848484610f23565b6000600160008673ffffffffffffffffffffffffffffffffffffffff1673ffffffffffffffffffffffffffffffffffffffff1681526020019081526020016000206000610496610d50565b73ffffffffffffffffffffffffffffffffffffffff1673ffffffffffffffffffffffffffffffffffffffff16815260200190815260200160002054905082811015610516576040517f08c379a000000000000000000000000000000000000000000000000000000000815260040161050d906119ad565b60405180910390fd5b61052a85610522610d50565b858403610d58565b60019150509392505050565b6000610540610d50565b73ffffffffffffffffffffffffffffffffffffffff1661055e610a0c565b73ffffffffffffffffffffffffffffffffffffffff16146105b4576040517f08c379a00000000000000000000000000000000000000000000000000000000081526004016105ab906119cd565b60405180910390fd5b600073ffffffffffffffffffffffffffffffffffffffff168473ffffffffffffffffffffffffffffffffffffffff161415610624576040517f08c379a000000000000000000000000000000000000000000000000000000000815260040161061b90611a8d565b60405180910390fd5b600073ffffffffffffffffffffffffffffffffffffffff168373ffffffffffffffffffffffffffffffffffffffff161415610694576040517f08c379a000000000000000000000000000000000000000000000000000000000815260040161068b90611a6d565b60405180910390fd5b818473ffffffffffffffffffffffffffffffffffffffff166370a08231306040518263ffffffff1660e01b81526004016106ce919061188c565b60206040518083038186803b1580156106e657600080fd5b505afa1580156106fa573d6000803e3d6000fd5b505050506040513d601f19601f8201168201806040525081019061071e91906115e1565b101561075f576040517f08c379a000000000000000000000000000000000000000000000000000000000815260040161075690611a0d565b60405180910390fd5b8373ffffffffffffffffffffffffffffffffffffffff1663a9059cbb84846040518363ffffffff1660e01b815260040161079a9291906118a7565b602060405180830381600087803b1580156107b457600080fd5b505af11580156107c8573d6000803e3d6000fd5b505050506040513d601f19601f820116820180604052508101906107ec919061158f565b50600190509392505050565b60006012905090565b60006108a361080e610d50565b84846001600061081c610d50565b73ffffffffffffffffffffffffffffffffffffffff1673ffffffffffffffffffffffffffffffffffffffff16815260200190815260200160002060008873ffffffffffffffffffffffffffffffffffffffff1673ffffffffffffffffffffffffffffffffffffffff1681526020019081526020016000205461089e9190611b3f565b610d58565b6001905092915050565b6108be6108b8610d50565b826111a4565b50565b60008060008373ffffffffffffffffffffffffffffffffffffffff1673ffffffffffffffffffffffffffffffffffffffff168152602001908152602001600020549050919050565b610911610d50565b73ffffffffffffffffffffffffffffffffffffffff1661092f610a0c565b73ffffffffffffffffffffffffffffffffffffffff1614610985576040517f08c379a000000000000000000000000000000000000000000000000000000000815260040161097c906119cd565b60405180910390fd5b61098f600061137b565b565b60006109a48361099f610d50565b610bd1565b9050818110156109e9576040517f08c379a00000000000000000000000000000000000000000000000000000000081526004016109e0906119ed565b60405180910390fd5b6109fd836109f5610d50565b848403610d58565b610a0783836111a4565b505050565b6000600560009054906101000a900473ffffffffffffffffffffffffffffffffffffffff16905090565b606060048054610a4590611c51565b80601f0160208091040260200160405190810160405280929190818152602001828054610a7190611c51565b8015610abe5780601f10610a9357610100808354040283529160200191610abe565b820191906000526020600020905b815481529060010190602001808311610aa157829003601f168201915b5050505050905090565b60008060016000610ad7610d50565b73ffffffffffffffffffffffffffffffffffffffff1673ffffffffffffffffffffffffffffffffffffffff16815260200190815260200160002060008573ffffffffffffffffffffffffffffffffffffffff1673ffffffffffffffffffffffffffffffffffffffff16815260200190815260200160002054905082811015610b94576040517f08c379a0000000000000000000000000000000000000000000000000000000008152600401610b8b90611acd565b60405180910390fd5b610ba8610b9f610d50565b85858403610d58565b600191505092915050565b6000610bc7610bc0610d50565b8484610f23565b6001905092915050565b6000600160008473ffffffffffffffffffffffffffffffffffffffff1673ffffffffffffffffffffffffffffffffffffffff16815260200190815260200160002060008373ffffffffffffffffffffffffffffffffffffffff1673ffffffffffffffffffffffffffffffffffffffff16815260200190815260200160002054905092915050565b610c60610d50565b73ffffffffffffffffffffffffffffffffffffffff16610c7e610a0c565b73ffffffffffffffffffffffffffffffffffffffff1614610cd4576040517f08c379a0000000000000000000000000000000000000000000000000000000008152600401610ccb906119cd565b60405180910390fd5b600073ffffffffffffffffffffffffffffffffffffffff168173ffffffffffffffffffffffffffffffffffffffff161415610d44576040517f08c379a0000000000000000000000000000000000000000000000000000000008152600401610d3b9061194d565b60405180910390fd5b610d4d8161137b565b50565b600033905090565b600073ffffffffffffffffffffffffffffffffffffffff168373ffffffffffffffffffffffffffffffffffffffff161415610dc8576040517f08c379a0000000000000000000000000000000000000000000000000000000008152600401610dbf90611aad565b60405180910390fd5b600073ffffffffffffffffffffffffffffffffffffffff168273ffffffffffffffffffffffffffffffffffffffff161415610e38576040517f08c379a0000000000000000000000000000000000000000000000000000000008152600401610e2f9061196d565b60405180910390fd5b80600160008573ffffffffffffffffffffffffffffffffffffffff1673ffffffffffffffffffffffffffffffffffffffff16815260200190815260200160002060008473ffffffffffffffffffffffffffffffffffffffff1673ffffffffffffffffffffffffffffffffffffffff168152602001908152602001600020819055508173ffffffffffffffffffffffffffffffffffffffff168373ffffffffffffffffffffffffffffffffffffffff167f8c5be1e5ebec7d5bd14f71427d1e84f3dd0314c0f7b2291e5b200ac8c7c3b92583604051610f169190611aed565b60405180910390a3505050565b600073ffffffffffffffffffffffffffffffffffffffff168373ffffffffffffffffffffffffffffffffffffffff161415610f93576040517f08c379a0000000000000000000000000000000000000000000000000000000008152600401610f8a90611a4d565b60405180910390fd5b600073ffffffffffffffffffffffffffffffffffffffff168273ffffffffffffffffffffffffffffffffffffffff161415611003576040517f08c379a0000000000000000000000000000000000000000000000000000000008152600401610ffa9061190d565b60405180910390fd5b61100e838383611441565b60008060008573ffffffffffffffffffffffffffffffffffffffff1673ffffffffffffffffffffffffffffffffffffffff16815260200190815260200160002054905081811015611094576040517f08c379a000000000000000000000000000000000000000000000000000000000815260040161108b9061198d565b60405180910390fd5b8181036000808673ffffffffffffffffffffffffffffffffffffffff1673ffffffffffffffffffffffffffffffffffffffff16815260200190815260200160002081905550816000808573ffffffffffffffffffffffffffffffffffffffff1673ffffffffffffffffffffffffffffffffffffffff16815260200190815260200160002060008282546111279190611b3f565b925050819055508273ffffffffffffffffffffffffffffffffffffffff168473ffffffffffffffffffffffffffffffffffffffff167fddf252ad1be2c89b69c2b068fc378daa952ba7f163c4a11628f55a4df523b3ef8460405161118b9190611aed565b60405180910390a361119e848484611446565b50505050565b600073ffffffffffffffffffffffffffffffffffffffff168273ffffffffffffffffffffffffffffffffffffffff161415611214576040517f08c379a000000000000000000000000000000000000000000000000000000000815260040161120b90611a2d565b60405180910390fd5b61122082600083611441565b60008060008473ffffffffffffffffffffffffffffffffffffffff1673ffffffffffffffffffffffffffffffffffffffff168152602001908152602001600020549050818110156112a6576040517f08c379a000000000000000000000000000000000000000000000000000000000815260040161129d9061192d565b60405180910390fd5b8181036000808573ffffffffffffffffffffffffffffffffffffffff1673ffffffffffffffffffffffffffffffffffffffff1681526020019081526020016000208190555081600260008282546112fd9190611b95565b92505081905550600073ffffffffffffffffffffffffffffffffffffffff168373ffffffffffffffffffffffffffffffffffffffff167fddf252ad1be2c89b69c2b068fc378daa952ba7f163c4a11628f55a4df523b3ef846040516113629190611aed565b60405180910390a361137683600084611446565b505050565b6000600560009054906101000a900473ffffffffffffffffffffffffffffffffffffffff16905081600560006101000a81548173ffffffffffffffffffffffffffffffffffffffff021916908373ffffffffffffffffffffffffffffffffffffffff1602179055508173ffffffffffffffffffffffffffffffffffffffff168173ffffffffffffffffffffffffffffffffffffffff167f8be0079c531659141344cd1fd0a4f28419497f9722a3daafe3b4186f6b6457e060405160405180910390a35050565b505050565b505050565b60008135905061145a81612121565b92915050565b60008151905061146f81612138565b92915050565b6000813590506114848161214f565b92915050565b6000815190506114998161214f565b92915050565b6000602082840312156114b157600080fd5b60006114bf8482850161144b565b91505092915050565b600080604083850312156114db57600080fd5b60006114e98582860161144b565b92505060206114fa8582860161144b565b9150509250929050565b60008060006060848603121561151957600080fd5b60006115278682870161144b565b93505060206115388682870161144b565b925050604061154986828701611475565b9150509250925092565b6000806040838503121561156657600080fd5b60006115748582860161144b565b925050602061158585828601611475565b9150509250929050565b6000602082840312156115a157600080fd5b60006115af84828501611460565b91505092915050565b6000602082840312156115ca57600080fd5b60006115d884828501611475565b91505092915050565b6000602082840312156115f357600080fd5b60006116018482850161148a565b91505092915050565b61161381611bc9565b82525050565b61162281611bdb565b82525050565b600061163382611b23565b61163d8185611b2e565b935061164d818560208601611c1e565b61165681611ce1565b840191505092915050565b600061166e602383611b2e565b915061167982611cf2565b604082019050919050565b6000611691602283611b2e565b915061169c82611d41565b604082019050919050565b60006116b4602683611b2e565b91506116bf82611d90565b604082019050919050565b60006116d7602283611b2e565b91506116e282611ddf565b604082019050919050565b60006116fa602683611b2e565b915061170582611e2e565b604082019050919050565b600061171d602883611b2e565b915061172882611e7d565b604082019050919050565b6000611740602083611b2e565b915061174b82611ecc565b602082019050919050565b6000611763602483611b2e565b915061176e82611ef5565b604082019050919050565b6000611786601a83611b2e565b915061179182611f44565b602082019050919050565b60006117a9602183611b2e565b91506117b482611f6d565b604082019050919050565b60006117cc602583611b2e565b91506117d782611fbc565b604082019050919050565b60006117ef601f83611b2e565b91506117fa8261200b565b602082019050919050565b6000611812602483611b2e565b915061181d82612034565b604082019050919050565b6000611835602483611b2e565b915061184082612083565b604082019050919050565b6000611858602583611b2e565b9150611863826120d2565b604082019050919050565b61187781611c07565b82525050565b61188681611c11565b82525050565b60006020820190506118a1600083018461160a565b92915050565b60006040820190506118bc600083018561160a565b6118c9602083018461186e565b9392505050565b60006020820190506118e56000830184611619565b92915050565b600060208201905081810360008301526119058184611628565b905092915050565b6000602082019050818103600083015261192681611661565b9050919050565b6000602082019050818103600083015261194681611684565b9050919050565b60006020820190508181036000830152611966816116a7565b9050919050565b60006020820190508181036000830152611986816116ca565b9050919050565b600060208201905081810360008301526119a6816116ed565b9050919050565b600060208201905081810360008301526119c681611710565b9050919050565b600060208201905081810360008301526119e681611733565b9050919050565b60006020820190508181036000830152611a0681611756565b9050919050565b60006020820190508181036000830152611a2681611779565b9050919050565b60006020820190508181036000830152611a468161179c565b9050919050565b60006020820190508181036000830152611a66816117bf565b9050919050565b60006020820190508181036000830152611a86816117e2565b9050919050565b60006020820190508181036000830152611aa681611805565b9050919050565b60006020820190508181036000830152611ac681611828565b9050919050565b60006020820190508181036000830152611ae68161184b565b9050919050565b6000602082019050611b02600083018461186e565b92915050565b6000602082019050611b1d600083018461187d565b92915050565b600081519050919050565b600082825260208201905092915050565b6000611b4a82611c07565b9150611b5583611c07565b9250827fffffffffffffffffffffffffffffffffffffffffffffffffffffffffffffffff03821115611b8a57611b89611c83565b5b828201905092915050565b6000611ba082611c07565b9150611bab83611c07565b925082821015611bbe57611bbd611c83565b5b828203905092915050565b6000611bd482611be7565b9050919050565b60008115159050919050565b600073ffffffffffffffffffffffffffffffffffffffff82169050919050565b6000819050919050565b600060ff82169050919050565b60005b83811015611c3c578082015181840152602081019050611c21565b83811115611c4b576000848401525b50505050565b60006002820490506001821680611c6957607f821691505b60208210811415611c7d57611c7c611cb2565b5b50919050565b7f4e487b7100000000000000000000000000000000000000000000000000000000600052601160045260246000fd5b7f4e487b7100000000000000000000000000000000000000000000000000000000600052602260045260246000fd5b6000601f19601f8301169050919050565b7f45524332303a207472616e7366657220746f20746865207a65726f206164647260008201527f6573730000000000000000000000000000000000000000000000000000000000602082015250565b7f45524332303a206275726e20616d6f756e7420657863656564732062616c616e60008201527f6365000000000000000000000000000000000000000000000000000000000000602082015250565b7f4f776e61626c653a206e6577206f776e657220697320746865207a65726f206160008201527f6464726573730000000000000000000000000000000000000000000000000000602082015250565b7f45524332303a20617070726f766520746f20746865207a65726f20616464726560008201527f7373000000000000000000000000000000000000000000000000000000000000602082015250565b7f45524332303a207472616e7366657220616d6f756e742065786365656473206260008201527f616c616e63650000000000000000000000000000000000000000000000000000602082015250565b7f45524332303a207472616e7366657220616d6f756e742065786365656473206160008201527f6c6c6f77616e6365000000000000000000000000000000000000000000000000602082015250565b7f4f776e61626c653a2063616c6c6572206973206e6f7420746865206f776e6572600082015250565b7f45524332303a206275726e20616d6f756e74206578636565647320616c6c6f7760008201527f616e636500000000000000000000000000000000000000000000000000000000602082015250565b7f496e73756666696369656e7420746f6b656e2062616c616e6365000000000000600082015250565b7f45524332303a206275726e2066726f6d20746865207a65726f2061646472657360008201527f7300000000000000000000000000000000000000000000000000000000000000602082015250565b7f45524332303a207472616e736665722066726f6d20746865207a65726f20616460008201527f6472657373000000000000000000000000000000000000000000000000000000602082015250565b7f43616e6e6f74207472616e7366657220746f207a65726f206164647265737300600082015250565b7f546f6b656e20616464726573732063616e6e6f74206265207a65726f2061646460008201527f7265737300000000000000000000000000000000000000000000000000000000602082015250565b7f45524332303a20617070726f76652066726f6d20746865207a65726f2061646460008201527f7265737300000000000000000000000000000000000000000000000000000000602082015250565b7f45524332303a2064656372656173656420616c6c6f77616e63652062656c6f7760008201527f207a65726f000000000000000000000000000000000000000000000000000000602082015250565b61212a81611bc9565b811461213557600080fd5b50565b61214181611bdb565b811461214c57600080fd5b50565b61215881611c07565b811461216357600080fd5b5056fea26469706673582212203ad1cd3a15adcec9ff6d53dc6dd6f1087e4abe0845a8e3309cb5a141944e57cc64736f6c63430008040033",
  "immutableReferences": {},
  "source": "//SPDX-License-Identifier: MIT\n\npragma solidity 0.8.4;\n\nimport \"@openzeppelin/contracts/token/ERC20/extensions/ERC20Burnable.sol\";\nimport \"@openzeppelin/contracts/token/ERC20/IERC20.sol\";\nimport \"@openzeppelin/contracts/access/Ownable.sol\";\n\n\ncontract BNUGToken is ERC20Burnable, Ownable {\n\n  constructor(\n    uint256 _totalSupply) \n    ERC20(\"Blockchain Nigeria User Group\", \"BNUG\") \n    Ownable() {\n    \n    _mint(msg.sender, _totalSupply);\n  }\n\n  function returnERC20(\n    address _token, \n    address _to, \n    uint256 amount) \n    external onlyOwner() returns(bool success) {\n    \n    require(\n      _token != address(0), \n      \"Token address cannot be zero address\"\n    );\n    require(\n      _to != address(0), \n      \"Cannot transfer to zero address\"\n    );\n\n    require(\n      IERC20(_token)\n        .balanceOf(address(this)) >= amount, \n      \"Insufficient token balance\"\n    );\n    \n    IERC20(_token).transfer(_to, amount);\n    return true;\n  }\n}\n",
  "sourcePath": "/Users/hendobox/Desktop/THE GRIND/Blockchain Dev/gitrepo/bnugDAO.finance/contracts/BNUGToken.sol",
  "compiler": {
    "name": "solc",
    "version": "0.8.4+commit.c7e474f2.Emscripten.clang"
  },
  "schemaVersion": "3.3.3",
  "updatedAt": "2021-09-01T22:27:34.756Z",
  "networkType": "ethereum",
  "devdoc": {
    "kind": "dev",
    "methods": {
      "allowance(address,address)": {
        "details": "See {IERC20-allowance}."
      },
      "approve(address,uint256)": {
        "details": "See {IERC20-approve}. Requirements: - `spender` cannot be the zero address."
      },
      "balanceOf(address)": {
        "details": "See {IERC20-balanceOf}."
      },
      "burn(uint256)": {
        "details": "Destroys `amount` tokens from the caller. See {ERC20-_burn}."
      },
      "burnFrom(address,uint256)": {
        "details": "Destroys `amount` tokens from `account`, deducting from the caller's allowance. See {ERC20-_burn} and {ERC20-allowance}. Requirements: - the caller must have allowance for ``accounts``'s tokens of at least `amount`."
      },
      "decimals()": {
        "details": "Returns the number of decimals used to get its user representation. For example, if `decimals` equals `2`, a balance of `505` tokens should be displayed to a user as `5.05` (`505 / 10 ** 2`). Tokens usually opt for a value of 18, imitating the relationship between Ether and Wei. This is the value {ERC20} uses, unless this function is overridden; NOTE: This information is only used for _display_ purposes: it in no way affects any of the arithmetic of the contract, including {IERC20-balanceOf} and {IERC20-transfer}."
      },
      "decreaseAllowance(address,uint256)": {
        "details": "Atomically decreases the allowance granted to `spender` by the caller. This is an alternative to {approve} that can be used as a mitigation for problems described in {IERC20-approve}. Emits an {Approval} event indicating the updated allowance. Requirements: - `spender` cannot be the zero address. - `spender` must have allowance for the caller of at least `subtractedValue`."
      },
      "increaseAllowance(address,uint256)": {
        "details": "Atomically increases the allowance granted to `spender` by the caller. This is an alternative to {approve} that can be used as a mitigation for problems described in {IERC20-approve}. Emits an {Approval} event indicating the updated allowance. Requirements: - `spender` cannot be the zero address."
      },
      "name()": {
        "details": "Returns the name of the token."
      },
      "owner()": {
        "details": "Returns the address of the current owner."
      },
      "renounceOwnership()": {
        "details": "Leaves the contract without owner. It will not be possible to call `onlyOwner` functions anymore. Can only be called by the current owner. NOTE: Renouncing ownership will leave the contract without an owner, thereby removing any functionality that is only available to the owner."
      },
      "symbol()": {
        "details": "Returns the symbol of the token, usually a shorter version of the name."
      },
      "totalSupply()": {
        "details": "See {IERC20-totalSupply}."
      },
      "transfer(address,uint256)": {
        "details": "See {IERC20-transfer}. Requirements: - `recipient` cannot be the zero address. - the caller must have a balance of at least `amount`."
      },
      "transferFrom(address,address,uint256)": {
        "details": "See {IERC20-transferFrom}. Emits an {Approval} event indicating the updated allowance. This is not required by the EIP. See the note at the beginning of {ERC20}. Requirements: - `sender` and `recipient` cannot be the zero address. - `sender` must have a balance of at least `amount`. - the caller must have allowance for ``sender``'s tokens of at least `amount`."
      },
      "transferOwnership(address)": {
        "details": "Transfers ownership of the contract to a new account (`newOwner`). Can only be called by the current owner."
      }
    },
    "version": 1
  },
  "userdoc": {
    "kind": "user",
    "methods": {},
    "version": 1
  }
}