{
  "contractName": "GovernanceToken",
  "abi": [
    {
      "inputs": [],
      "stateMutability": "nonpayable",
      "type": "constructor"
    },
    {
      "anonymous": false,
      "inputs": [
        {
          "indexed": true,
          "internalType": "address",
          "name": "owner",
          "type": "address"
        },
        {
          "indexed": true,
          "internalType": "address",
          "name": "spender",
          "type": "address"
        },
        {
          "indexed": false,
          "internalType": "uint256",
          "name": "value",
          "type": "uint256"
        }
      ],
      "name": "Approval",
      "type": "event"
    },
    {
      "anonymous": false,
      "inputs": [
        {
          "indexed": true,
          "internalType": "address",
          "name": "caller",
          "type": "address"
        },
        {
          "indexed": true,
          "internalType": "address",
          "name": "minter",
          "type": "address"
        },
        {
          "indexed": false,
          "internalType": "uint256",
          "name": "timestamp",
          "type": "uint256"
        }
      ],
      "name": "MinterAdded",
      "type": "event"
    },
    {
      "anonymous": false,
      "inputs": [
        {
          "indexed": true,
          "internalType": "address",
          "name": "caller",
          "type": "address"
        },
        {
          "indexed": true,
          "internalType": "address",
          "name": "minter",
          "type": "address"
        },
        {
          "indexed": false,
          "internalType": "uint256",
          "name": "timestamp",
          "type": "uint256"
        }
      ],
      "name": "MinterRemoved",
      "type": "event"
    },
    {
      "anonymous": false,
      "inputs": [
        {
          "indexed": true,
          "internalType": "address",
          "name": "previousOwner",
          "type": "address"
        },
        {
          "indexed": true,
          "internalType": "address",
          "name": "newOwner",
          "type": "address"
        }
      ],
      "name": "OwnershipTransferred",
      "type": "event"
    },
    {
      "anonymous": false,
      "inputs": [
        {
          "indexed": true,
          "internalType": "address",
          "name": "token",
          "type": "address"
        },
        {
          "indexed": true,
          "internalType": "address",
          "name": "receiver",
          "type": "address"
        },
        {
          "indexed": false,
          "internalType": "uint256",
          "name": "amount",
          "type": "uint256"
        }
      ],
      "name": "ReturnedERC20",
      "type": "event"
    },
    {
      "anonymous": false,
      "inputs": [
        {
          "indexed": true,
          "internalType": "address",
          "name": "from",
          "type": "address"
        },
        {
          "indexed": true,
          "internalType": "address",
          "name": "to",
          "type": "address"
        },
        {
          "indexed": false,
          "internalType": "uint256",
          "name": "value",
          "type": "uint256"
        }
      ],
      "name": "Transfer",
      "type": "event"
    },
    {
      "inputs": [
        {
          "internalType": "address",
          "name": "owner",
          "type": "address"
        },
        {
          "internalType": "address",
          "name": "spender",
          "type": "address"
        }
      ],
      "name": "allowance",
      "outputs": [
        {
          "internalType": "uint256",
          "name": "",
          "type": "uint256"
        }
      ],
      "stateMutability": "view",
      "type": "function"
    },
    {
      "inputs": [
        {
          "internalType": "address",
          "name": "spender",
          "type": "address"
        },
        {
          "internalType": "uint256",
          "name": "amount",
          "type": "uint256"
        }
      ],
      "name": "approve",
      "outputs": [
        {
          "internalType": "bool",
          "name": "",
          "type": "bool"
        }
      ],
      "stateMutability": "nonpayable",
      "type": "function"
    },
    {
      "inputs": [
        {
          "internalType": "address",
          "name": "account",
          "type": "address"
        }
      ],
      "name": "balanceOf",
      "outputs": [
        {
          "internalType": "uint256",
          "name": "",
          "type": "uint256"
        }
      ],
      "stateMutability": "view",
      "type": "function"
    },
    {
      "inputs": [
        {
          "internalType": "uint256",
          "name": "amount",
          "type": "uint256"
        }
      ],
      "name": "burn",
      "outputs": [],
      "stateMutability": "nonpayable",
      "type": "function"
    },
    {
      "inputs": [
        {
          "internalType": "address",
          "name": "account",
          "type": "address"
        },
        {
          "internalType": "uint256",
          "name": "amount",
          "type": "uint256"
        }
      ],
      "name": "burnFrom",
      "outputs": [],
      "stateMutability": "nonpayable",
      "type": "function"
    },
    {
      "inputs": [],
      "name": "decimals",
      "outputs": [
        {
          "internalType": "uint8",
          "name": "",
          "type": "uint8"
        }
      ],
      "stateMutability": "view",
      "type": "function"
    },
    {
      "inputs": [
        {
          "internalType": "address",
          "name": "spender",
          "type": "address"
        },
        {
          "internalType": "uint256",
          "name": "subtractedValue",
          "type": "uint256"
        }
      ],
      "name": "decreaseAllowance",
      "outputs": [
        {
          "internalType": "bool",
          "name": "",
          "type": "bool"
        }
      ],
      "stateMutability": "nonpayable",
      "type": "function"
    },
    {
      "inputs": [
        {
          "internalType": "address",
          "name": "spender",
          "type": "address"
        },
        {
          "internalType": "uint256",
          "name": "addedValue",
          "type": "uint256"
        }
      ],
      "name": "increaseAllowance",
      "outputs": [
        {
          "internalType": "bool",
          "name": "",
          "type": "bool"
        }
      ],
      "stateMutability": "nonpayable",
      "type": "function"
    },
    {
      "inputs": [],
      "name": "name",
      "outputs": [
        {
          "internalType": "string",
          "name": "",
          "type": "string"
        }
      ],
      "stateMutability": "view",
      "type": "function"
    },
    {
      "inputs": [],
      "name": "owner",
      "outputs": [
        {
          "internalType": "address",
          "name": "",
          "type": "address"
        }
      ],
      "stateMutability": "view",
      "type": "function"
    },
    {
      "inputs": [],
      "name": "renounceOwnership",
      "outputs": [],
      "stateMutability": "nonpayable",
      "type": "function"
    },
    {
      "inputs": [],
      "name": "symbol",
      "outputs": [
        {
          "internalType": "string",
          "name": "",
          "type": "string"
        }
      ],
      "stateMutability": "view",
      "type": "function"
    },
    {
      "inputs": [],
      "name": "totalSupply",
      "outputs": [
        {
          "internalType": "uint256",
          "name": "",
          "type": "uint256"
        }
      ],
      "stateMutability": "view",
      "type": "function"
    },
    {
      "inputs": [
        {
          "internalType": "address",
          "name": "recipient",
          "type": "address"
        },
        {
          "internalType": "uint256",
          "name": "amount",
          "type": "uint256"
        }
      ],
      "name": "transfer",
      "outputs": [
        {
          "internalType": "bool",
          "name": "",
          "type": "bool"
        }
      ],
      "stateMutability": "nonpayable",
      "type": "function"
    },
    {
      "inputs": [
        {
          "internalType": "address",
          "name": "sender",
          "type": "address"
        },
        {
          "internalType": "address",
          "name": "recipient",
          "type": "address"
        },
        {
          "internalType": "uint256",
          "name": "amount",
          "type": "uint256"
        }
      ],
      "name": "transferFrom",
      "outputs": [
        {
          "internalType": "bool",
          "name": "",
          "type": "bool"
        }
      ],
      "stateMutability": "nonpayable",
      "type": "function"
    },
    {
      "inputs": [
        {
          "internalType": "address",
          "name": "newOwner",
          "type": "address"
        }
      ],
      "name": "transferOwnership",
      "outputs": [],
      "stateMutability": "nonpayable",
      "type": "function"
    },
    {
      "inputs": [
        {
          "internalType": "address",
          "name": "_to",
          "type": "address"
        },
        {
          "internalType": "uint256",
          "name": "_amount",
          "type": "uint256"
        }
      ],
      "name": "mintToken",
      "outputs": [],
      "stateMutability": "nonpayable",
      "type": "function"
    },
    {
      "inputs": [
        {
          "internalType": "address",
          "name": "_token",
          "type": "address"
        },
        {
          "internalType": "address",
          "name": "_to",
          "type": "address"
        },
        {
          "internalType": "uint256",
          "name": "_amount",
          "type": "uint256"
        }
      ],
      "name": "returnERC20",
      "outputs": [],
      "stateMutability": "nonpayable",
      "type": "function"
    },
    {
      "inputs": [
        {
          "internalType": "address",
          "name": "_minter",
          "type": "address"
        }
      ],
      "name": "addMinter",
      "outputs": [],
      "stateMutability": "nonpayable",
      "type": "function"
    },
    {
      "inputs": [
        {
          "internalType": "address",
          "name": "_minter",
          "type": "address"
        }
      ],
      "name": "removeMinter",
      "outputs": [],
      "stateMutability": "nonpayable",
      "type": "function"
    },
    {
      "inputs": [
        {
          "internalType": "address",
          "name": "_addr",
          "type": "address"
        }
      ],
      "name": "hasMinterRight",
      "outputs": [
        {
          "internalType": "bool",
          "name": "canMint",
          "type": "bool"
        }
      ],
      "stateMutability": "view",
      "type": "function"
    }
  ],
  "bytecode": "0x60806040523480156200001157600080fd5b506040518060400160405280601581526020017f424e554720476f7665726e616e636520546f6b656e00000000000000000000008152506040518060400160405280600781526020017f424e554744414f00000000000000000000000000000000000000000000000000815250816003908051906020019062000096929190620001a6565b508060049080519060200190620000af929190620001a6565b505050620000d2620000c6620000d860201b60201c565b620000e060201b60201c565b620002bb565b600033905090565b6000600560009054906101000a900473ffffffffffffffffffffffffffffffffffffffff16905081600560006101000a81548173ffffffffffffffffffffffffffffffffffffffff021916908373ffffffffffffffffffffffffffffffffffffffff1602179055508173ffffffffffffffffffffffffffffffffffffffff168173ffffffffffffffffffffffffffffffffffffffff167f8be0079c531659141344cd1fd0a4f28419497f9722a3daafe3b4186f6b6457e060405160405180910390a35050565b828054620001b49062000256565b90600052602060002090601f016020900481019282620001d8576000855562000224565b82601f10620001f357805160ff191683800117855562000224565b8280016001018555821562000224579182015b828111156200022357825182559160200191906001019062000206565b5b50905062000233919062000237565b5090565b5b808211156200025257600081600090555060010162000238565b5090565b600060028204905060018216806200026f57607f821691505b602082108114156200028657620002856200028c565b5b50919050565b7f4e487b7100000000000000000000000000000000000000000000000000000000600052602260045260246000fd5b612adf80620002cb6000396000f3fe608060405234801561001057600080fd5b50600436106101375760003560e01c8063715018a6116100b8578063983b2d561161007c578063983b2d5614610328578063a457c2d714610344578063a9059cbb14610374578063bcf8634a146103a4578063dd62ed3e146103d4578063f2fde38b1461040457610137565b8063715018a6146102aa57806379c65068146102b457806379cc6790146102d05780638da5cb5b146102ec57806395d89b411461030a57610137565b80633092afd5116100ff5780633092afd5146101f4578063313ce56714610210578063395093511461022e57806342966c681461025e57806370a082311461027a57610137565b806306fdde031461013c578063095ea7b31461015a57806318160ddd1461018a57806323b872dd146101a857806323d49a3e146101d8575b600080fd5b610144610420565b60405161015191906120e7565b60405180910390f35b610174600480360381019061016f9190611ca0565b6104b2565b60405161018191906120cc565b60405180910390f35b6101926104d0565b60405161019f9190612389565b60405180910390f35b6101c260048036038101906101bd9190611c51565b6104da565b6040516101cf91906120cc565b60405180910390f35b6101f260048036038101906101ed9190611c51565b6105d2565b005b61020e60048036038101906102099190611bec565b6108f1565b005b610218610979565b60405161022591906123a4565b60405180910390f35b61024860048036038101906102439190611ca0565b610982565b60405161025591906120cc565b60405180910390f35b61027860048036038101906102739190611d05565b610a2e565b005b610294600480360381019061028f9190611bec565b610a42565b6040516102a19190612389565b60405180910390f35b6102b2610a8a565b005b6102ce60048036038101906102c99190611ca0565b610b12565b005b6102ea60048036038101906102e59190611ca0565b610bac565b005b6102f4610c27565b6040516103019190612088565b60405180910390f35b610312610c51565b60405161031f91906120e7565b60405180910390f35b610342600480360381019061033d9190611bec565b610ce3565b005b61035e60048036038101906103599190611ca0565b610d6b565b60405161036b91906120cc565b60405180910390f35b61038e60048036038101906103899190611ca0565b610e56565b60405161039b91906120cc565b60405180910390f35b6103be60048036038101906103b99190611bec565b610e74565b6040516103cb91906120cc565b60405180910390f35b6103ee60048036038101906103e99190611c15565b610eca565b6040516103fb9190612389565b60405180910390f35b61041e60048036038101906104199190611bec565b610f51565b005b60606003805461042f906124ed565b80601f016020809104026020016040519081016040528092919081815260200182805461045b906124ed565b80156104a85780601f1061047d576101008083540402835291602001916104a8565b820191906000526020600020905b81548152906001019060200180831161048b57829003601f168201915b5050505050905090565b60006104c66104bf611049565b8484611051565b6001905092915050565b6000600254905090565b60006104e784848461121c565b6000600160008673ffffffffffffffffffffffffffffffffffffffff1673ffffffffffffffffffffffffffffffffffffffff1681526020019081526020016000206000610532611049565b73ffffffffffffffffffffffffffffffffffffffff1673ffffffffffffffffffffffffffffffffffffffff168152602001908152602001600020549050828110156105b2576040517f08c379a00000000000000000000000000000000000000000000000000000000081526004016105a990612249565b60405180910390fd5b6105c6856105be611049565b858403611051565b60019150509392505050565b6105da611049565b73ffffffffffffffffffffffffffffffffffffffff166105f8610c27565b73ffffffffffffffffffffffffffffffffffffffff161461064e576040517f08c379a000000000000000000000000000000000000000000000000000000000815260040161064590612269565b60405180910390fd5b600073ffffffffffffffffffffffffffffffffffffffff168373ffffffffffffffffffffffffffffffffffffffff1614156106be576040517f08c379a00000000000000000000000000000000000000000000000000000000081526004016106b590612149565b60405180910390fd5b600073ffffffffffffffffffffffffffffffffffffffff168273ffffffffffffffffffffffffffffffffffffffff16141561072e576040517f08c379a000000000000000000000000000000000000000000000000000000000815260040161072590612329565b60405180910390fd5b808373ffffffffffffffffffffffffffffffffffffffff166370a08231306040518263ffffffff1660e01b81526004016107689190612088565b60206040518083038186803b15801561078057600080fd5b505afa158015610794573d6000803e3d6000fd5b505050506040513d601f19601f820116820180604052508101906107b89190611d2e565b10156107f9576040517f08c379a00000000000000000000000000000000000000000000000000000000081526004016107f090612209565b60405180910390fd5b8273ffffffffffffffffffffffffffffffffffffffff1663a9059cbb83836040518363ffffffff1660e01b81526004016108349291906120a3565b602060405180830381600087803b15801561084e57600080fd5b505af1158015610862573d6000803e3d6000fd5b505050506040513d601f19601f820116820180604052508101906108869190611cdc565b508173ffffffffffffffffffffffffffffffffffffffff168373ffffffffffffffffffffffffffffffffffffffff167f53344b9382ed70bc36d24d0f55208e358f5f19464d20b9f569df1f8df688576f836040516108e49190612389565b60405180910390a3505050565b6108f9611049565b73ffffffffffffffffffffffffffffffffffffffff16610917610c27565b73ffffffffffffffffffffffffffffffffffffffff161461096d576040517f08c379a000000000000000000000000000000000000000000000000000000000815260040161096490612269565b60405180910390fd5b6109768161149d565b50565b60006012905090565b6000610a2461098f611049565b84846001600061099d611049565b73ffffffffffffffffffffffffffffffffffffffff1673ffffffffffffffffffffffffffffffffffffffff16815260200190815260200160002060008873ffffffffffffffffffffffffffffffffffffffff1673ffffffffffffffffffffffffffffffffffffffff16815260200190815260200160002054610a1f91906123db565b611051565b6001905092915050565b610a3f610a39611049565b826115e9565b50565b60008060008373ffffffffffffffffffffffffffffffffffffffff1673ffffffffffffffffffffffffffffffffffffffff168152602001908152602001600020549050919050565b610a92611049565b73ffffffffffffffffffffffffffffffffffffffff16610ab0610c27565b73ffffffffffffffffffffffffffffffffffffffff1614610b06576040517f08c379a0000000000000000000000000000000000000000000000000000000008152600401610afd90612269565b60405180910390fd5b610b1060006117c0565b565b600660003373ffffffffffffffffffffffffffffffffffffffff1673ffffffffffffffffffffffffffffffffffffffff16815260200190815260200160002060009054906101000a900460ff16610b9e576040517f08c379a0000000000000000000000000000000000000000000000000000000008152600401610b95906122a9565b60405180910390fd5b610ba88282611886565b5050565b6000610bbf83610bba611049565b610eca565b905081811015610c04576040517f08c379a0000000000000000000000000000000000000000000000000000000008152600401610bfb90612289565b60405180910390fd5b610c1883610c10611049565b848403611051565b610c2283836115e9565b505050565b6000600560009054906101000a900473ffffffffffffffffffffffffffffffffffffffff16905090565b606060048054610c60906124ed565b80601f0160208091040260200160405190810160405280929190818152602001828054610c8c906124ed565b8015610cd95780601f10610cae57610100808354040283529160200191610cd9565b820191906000526020600020905b815481529060010190602001808311610cbc57829003601f168201915b5050505050905090565b610ceb611049565b73ffffffffffffffffffffffffffffffffffffffff16610d09610c27565b73ffffffffffffffffffffffffffffffffffffffff1614610d5f576040517f08c379a0000000000000000000000000000000000000000000000000000000008152600401610d5690612269565b60405180910390fd5b610d68816119e6565b50565b60008060016000610d7a611049565b73ffffffffffffffffffffffffffffffffffffffff1673ffffffffffffffffffffffffffffffffffffffff16815260200190815260200160002060008573ffffffffffffffffffffffffffffffffffffffff1673ffffffffffffffffffffffffffffffffffffffff16815260200190815260200160002054905082811015610e37576040517f08c379a0000000000000000000000000000000000000000000000000000000008152600401610e2e90612349565b60405180910390fd5b610e4b610e42611049565b85858403611051565b600191505092915050565b6000610e6a610e63611049565b848461121c565b6001905092915050565b6000600660008373ffffffffffffffffffffffffffffffffffffffff1673ffffffffffffffffffffffffffffffffffffffff16815260200190815260200160002060009054906101000a900460ff169050919050565b6000600160008473ffffffffffffffffffffffffffffffffffffffff1673ffffffffffffffffffffffffffffffffffffffff16815260200190815260200160002060008373ffffffffffffffffffffffffffffffffffffffff1673ffffffffffffffffffffffffffffffffffffffff16815260200190815260200160002054905092915050565b610f59611049565b73ffffffffffffffffffffffffffffffffffffffff16610f77610c27565b73ffffffffffffffffffffffffffffffffffffffff1614610fcd576040517f08c379a0000000000000000000000000000000000000000000000000000000008152600401610fc490612269565b60405180910390fd5b600073ffffffffffffffffffffffffffffffffffffffff168173ffffffffffffffffffffffffffffffffffffffff16141561103d576040517f08c379a000000000000000000000000000000000000000000000000000000000815260040161103490612189565b60405180910390fd5b611046816117c0565b50565b600033905090565b600073ffffffffffffffffffffffffffffffffffffffff168373ffffffffffffffffffffffffffffffffffffffff1614156110c1576040517f08c379a00000000000000000000000000000000000000000000000000000000081526004016110b890612309565b60405180910390fd5b600073ffffffffffffffffffffffffffffffffffffffff168273ffffffffffffffffffffffffffffffffffffffff161415611131576040517f08c379a0000000000000000000000000000000000000000000000000000000008152600401611128906121a9565b60405180910390fd5b80600160008573ffffffffffffffffffffffffffffffffffffffff1673ffffffffffffffffffffffffffffffffffffffff16815260200190815260200160002060008473ffffffffffffffffffffffffffffffffffffffff1673ffffffffffffffffffffffffffffffffffffffff168152602001908152602001600020819055508173ffffffffffffffffffffffffffffffffffffffff168373ffffffffffffffffffffffffffffffffffffffff167f8c5be1e5ebec7d5bd14f71427d1e84f3dd0314c0f7b2291e5b200ac8c7c3b9258360405161120f9190612389565b60405180910390a3505050565b600073ffffffffffffffffffffffffffffffffffffffff168373ffffffffffffffffffffffffffffffffffffffff16141561128c576040517f08c379a0000000000000000000000000000000000000000000000000000000008152600401611283906122e9565b60405180910390fd5b600073ffffffffffffffffffffffffffffffffffffffff168273ffffffffffffffffffffffffffffffffffffffff1614156112fc576040517f08c379a00000000000000000000000000000000000000000000000000000000081526004016112f390612129565b60405180910390fd5b611307838383611b7b565b60008060008573ffffffffffffffffffffffffffffffffffffffff1673ffffffffffffffffffffffffffffffffffffffff1681526020019081526020016000205490508181101561138d576040517f08c379a0000000000000000000000000000000000000000000000000000000008152600401611384906121e9565b60405180910390fd5b8181036000808673ffffffffffffffffffffffffffffffffffffffff1673ffffffffffffffffffffffffffffffffffffffff16815260200190815260200160002081905550816000808573ffffffffffffffffffffffffffffffffffffffff1673ffffffffffffffffffffffffffffffffffffffff168152602001908152602001600020600082825461142091906123db565b925050819055508273ffffffffffffffffffffffffffffffffffffffff168473ffffffffffffffffffffffffffffffffffffffff167fddf252ad1be2c89b69c2b068fc378daa952ba7f163c4a11628f55a4df523b3ef846040516114849190612389565b60405180910390a3611497848484611b80565b50505050565b600660008273ffffffffffffffffffffffffffffffffffffffff1673ffffffffffffffffffffffffffffffffffffffff16815260200190815260200160002060009054906101000a900460ff16611529576040517f08c379a000000000000000000000000000000000000000000000000000000000815260040161152090612229565b60405180910390fd5b6000600660008373ffffffffffffffffffffffffffffffffffffffff1673ffffffffffffffffffffffffffffffffffffffff16815260200190815260200160002060006101000a81548160ff0219169083151502179055508073ffffffffffffffffffffffffffffffffffffffff163373ffffffffffffffffffffffffffffffffffffffff167f984a31e01941e48d68c44be032665f058c14c9937d7b585dac6663e4e0423fb9426040516115de9190612389565b60405180910390a350565b600073ffffffffffffffffffffffffffffffffffffffff168273ffffffffffffffffffffffffffffffffffffffff161415611659576040517f08c379a0000000000000000000000000000000000000000000000000000000008152600401611650906122c9565b60405180910390fd5b61166582600083611b7b565b60008060008473ffffffffffffffffffffffffffffffffffffffff1673ffffffffffffffffffffffffffffffffffffffff168152602001908152602001600020549050818110156116eb576040517f08c379a00000000000000000000000000000000000000000000000000000000081526004016116e290612169565b60405180910390fd5b8181036000808573ffffffffffffffffffffffffffffffffffffffff1673ffffffffffffffffffffffffffffffffffffffff1681526020019081526020016000208190555081600260008282546117429190612431565b92505081905550600073ffffffffffffffffffffffffffffffffffffffff168373ffffffffffffffffffffffffffffffffffffffff167fddf252ad1be2c89b69c2b068fc378daa952ba7f163c4a11628f55a4df523b3ef846040516117a79190612389565b60405180910390a36117bb83600084611b80565b505050565b6000600560009054906101000a900473ffffffffffffffffffffffffffffffffffffffff16905081600560006101000a81548173ffffffffffffffffffffffffffffffffffffffff021916908373ffffffffffffffffffffffffffffffffffffffff1602179055508173ffffffffffffffffffffffffffffffffffffffff168173ffffffffffffffffffffffffffffffffffffffff167f8be0079c531659141344cd1fd0a4f28419497f9722a3daafe3b4186f6b6457e060405160405180910390a35050565b600073ffffffffffffffffffffffffffffffffffffffff168273ffffffffffffffffffffffffffffffffffffffff1614156118f6576040517f08c379a00000000000000000000000000000000000000000000000000000000081526004016118ed90612369565b60405180910390fd5b61190260008383611b7b565b806002600082825461191491906123db565b92505081905550806000808473ffffffffffffffffffffffffffffffffffffffff1673ffffffffffffffffffffffffffffffffffffffff168152602001908152602001600020600082825461196991906123db565b925050819055508173ffffffffffffffffffffffffffffffffffffffff16600073ffffffffffffffffffffffffffffffffffffffff167fddf252ad1be2c89b69c2b068fc378daa952ba7f163c4a11628f55a4df523b3ef836040516119ce9190612389565b60405180910390a36119e260008383611b80565b5050565b600660008273ffffffffffffffffffffffffffffffffffffffff1673ffffffffffffffffffffffffffffffffffffffff16815260200190815260200160002060009054906101000a900460ff1615611a73576040517f08c379a0000000000000000000000000000000000000000000000000000000008152600401611a6a90612109565b60405180910390fd5b611a7c81611b85565b611abb576040517f08c379a0000000000000000000000000000000000000000000000000000000008152600401611ab2906121c9565b60405180910390fd5b6001600660008373ffffffffffffffffffffffffffffffffffffffff1673ffffffffffffffffffffffffffffffffffffffff16815260200190815260200160002060006101000a81548160ff0219169083151502179055508073ffffffffffffffffffffffffffffffffffffffff163373ffffffffffffffffffffffffffffffffffffffff167f435655312941f4a498a73145f34746422af65d28f3b398f09f6ba50f995dae8e42604051611b709190612389565b60405180910390a350565b505050565b505050565b600080823b905060008111915050919050565b600081359050611ba781612a64565b92915050565b600081519050611bbc81612a7b565b92915050565b600081359050611bd181612a92565b92915050565b600081519050611be681612a92565b92915050565b600060208284031215611bfe57600080fd5b6000611c0c84828501611b98565b91505092915050565b60008060408385031215611c2857600080fd5b6000611c3685828601611b98565b9250506020611c4785828601611b98565b9150509250929050565b600080600060608486031215611c6657600080fd5b6000611c7486828701611b98565b9350506020611c8586828701611b98565b9250506040611c9686828701611bc2565b9150509250925092565b60008060408385031215611cb357600080fd5b6000611cc185828601611b98565b9250506020611cd285828601611bc2565b9150509250929050565b600060208284031215611cee57600080fd5b6000611cfc84828501611bad565b91505092915050565b600060208284031215611d1757600080fd5b6000611d2584828501611bc2565b91505092915050565b600060208284031215611d4057600080fd5b6000611d4e84828501611bd7565b91505092915050565b611d6081612465565b82525050565b611d6f81612477565b82525050565b6000611d80826123bf565b611d8a81856123ca565b9350611d9a8185602086016124ba565b611da38161257d565b840191505092915050565b6000611dbb601b836123ca565b9150611dc68261258e565b602082019050919050565b6000611dde6023836123ca565b9150611de9826125b7565b604082019050919050565b6000611e016016836123ca565b9150611e0c82612606565b602082019050919050565b6000611e246022836123ca565b9150611e2f8261262f565b604082019050919050565b6000611e476026836123ca565b9150611e528261267e565b604082019050919050565b6000611e6a6022836123ca565b9150611e75826126cd565b604082019050919050565b6000611e8d6020836123ca565b9150611e988261271c565b602082019050919050565b6000611eb06026836123ca565b9150611ebb82612745565b604082019050919050565b6000611ed3601a836123ca565b9150611ede82612794565b602082019050919050565b6000611ef66017836123ca565b9150611f01826127bd565b602082019050919050565b6000611f196028836123ca565b9150611f24826127e6565b604082019050919050565b6000611f3c6020836123ca565b9150611f4782612835565b602082019050919050565b6000611f5f6024836123ca565b9150611f6a8261285e565b604082019050919050565b6000611f826013836123ca565b9150611f8d826128ad565b602082019050919050565b6000611fa56021836123ca565b9150611fb0826128d6565b604082019050919050565b6000611fc86025836123ca565b9150611fd382612925565b604082019050919050565b6000611feb6024836123ca565b9150611ff682612974565b604082019050919050565b600061200e6013836123ca565b9150612019826129c3565b602082019050919050565b60006120316025836123ca565b915061203c826129ec565b604082019050919050565b6000612054601f836123ca565b915061205f82612a3b565b602082019050919050565b612073816124a3565b82525050565b612082816124ad565b82525050565b600060208201905061209d6000830184611d57565b92915050565b60006040820190506120b86000830185611d57565b6120c5602083018461206a565b9392505050565b60006020820190506120e16000830184611d66565b92915050565b600060208201905081810360008301526121018184611d75565b905092915050565b6000602082019050818103600083015261212281611dae565b9050919050565b6000602082019050818103600083015261214281611dd1565b9050919050565b6000602082019050818103600083015261216281611df4565b9050919050565b6000602082019050818103600083015261218281611e17565b9050919050565b600060208201905081810360008301526121a281611e3a565b9050919050565b600060208201905081810360008301526121c281611e5d565b9050919050565b600060208201905081810360008301526121e281611e80565b9050919050565b6000602082019050818103600083015261220281611ea3565b9050919050565b6000602082019050818103600083015261222281611ec6565b9050919050565b6000602082019050818103600083015261224281611ee9565b9050919050565b6000602082019050818103600083015261226281611f0c565b9050919050565b6000602082019050818103600083015261228281611f2f565b9050919050565b600060208201905081810360008301526122a281611f52565b9050919050565b600060208201905081810360008301526122c281611f75565b9050919050565b600060208201905081810360008301526122e281611f98565b9050919050565b6000602082019050818103600083015261230281611fbb565b9050919050565b6000602082019050818103600083015261232281611fde565b9050919050565b6000602082019050818103600083015261234281612001565b9050919050565b6000602082019050818103600083015261236281612024565b9050919050565b6000602082019050818103600083015261238281612047565b9050919050565b600060208201905061239e600083018461206a565b92915050565b60006020820190506123b96000830184612079565b92915050565b600081519050919050565b600082825260208201905092915050565b60006123e6826124a3565b91506123f1836124a3565b9250827fffffffffffffffffffffffffffffffffffffffffffffffffffffffffffffffff038211156124265761242561251f565b5b828201905092915050565b600061243c826124a3565b9150612447836124a3565b92508282101561245a5761245961251f565b5b828203905092915050565b600061247082612483565b9050919050565b60008115159050919050565b600073ffffffffffffffffffffffffffffffffffffffff82169050919050565b6000819050919050565b600060ff82169050919050565b60005b838110156124d85780820151818401526020810190506124bd565b838111156124e7576000848401525b50505050565b6000600282049050600182168061250557607f821691505b602082108114156125195761251861254e565b5b50919050565b7f4e487b7100000000000000000000000000000000000000000000000000000000600052601160045260246000fd5b7f4e487b7100000000000000000000000000000000000000000000000000000000600052602260045260246000fd5b6000601f19601f8301169050919050565b7f5f6d696e74657220697320616c72656164792061206d696e7465720000000000600082015250565b7f45524332303a207472616e7366657220746f20746865207a65726f206164647260008201527f6573730000000000000000000000000000000000000000000000000000000000602082015250565b7f696e76616c6964205f746f6b656e206164647265737300000000000000000000600082015250565b7f45524332303a206275726e20616d6f756e7420657863656564732062616c616e60008201527f6365000000000000000000000000000000000000000000000000000000000000602082015250565b7f4f776e61626c653a206e6577206f776e657220697320746865207a65726f206160008201527f6464726573730000000000000000000000000000000000000000000000000000602082015250565b7f45524332303a20617070726f766520746f20746865207a65726f20616464726560008201527f7373000000000000000000000000000000000000000000000000000000000000602082015250565b7f5f6d696e746572206d757374206265206120736d61727420636f6e7472616374600082015250565b7f45524332303a207472616e7366657220616d6f756e742065786365656473206260008201527f616c616e63650000000000000000000000000000000000000000000000000000602082015250565b7f696e73756666696369656e7420746f6b656e2062616c616e6365000000000000600082015250565b7f5f6d696e746572206973206e6f742061206d696e746572000000000000000000600082015250565b7f45524332303a207472616e7366657220616d6f756e742065786365656473206160008201527f6c6c6f77616e6365000000000000000000000000000000000000000000000000602082015250565b7f4f776e61626c653a2063616c6c6572206973206e6f7420746865206f776e6572600082015250565b7f45524332303a206275726e20616d6f756e74206578636565647320616c6c6f7760008201527f616e636500000000000000000000000000000000000000000000000000000000602082015250565b7f6f6e6c79206d696e74657220616c6c6f77656400000000000000000000000000600082015250565b7f45524332303a206275726e2066726f6d20746865207a65726f2061646472657360008201527f7300000000000000000000000000000000000000000000000000000000000000602082015250565b7f45524332303a207472616e736665722066726f6d20746865207a65726f20616460008201527f6472657373000000000000000000000000000000000000000000000000000000602082015250565b7f45524332303a20617070726f76652066726f6d20746865207a65726f2061646460008201527f7265737300000000000000000000000000000000000000000000000000000000602082015250565b7f696e76616c6964205f746f206164647265737300000000000000000000000000600082015250565b7f45524332303a2064656372656173656420616c6c6f77616e63652062656c6f7760008201527f207a65726f000000000000000000000000000000000000000000000000000000602082015250565b7f45524332303a206d696e7420746f20746865207a65726f206164647265737300600082015250565b612a6d81612465565b8114612a7857600080fd5b50565b612a8481612477565b8114612a8f57600080fd5b50565b612a9b816124a3565b8114612aa657600080fd5b5056fea264697066735822122089b10b7c8327eea455b2fac614558aa974a8ea6f0d48f82dfe15a4a14bc0658764736f6c63430008040033",
  "immutableReferences": {},
  "source": "//SPDX-License-Identifier: MIT\n\npragma solidity 0.8.4;\n\nimport \"@openzeppelin/contracts/token/ERC20/extensions/ERC20Burnable.sol\";\nimport \"@openzeppelin/contracts/access/Ownable.sol\";\nimport \"@openzeppelin/contracts/utils/Address.sol\";\n\ncontract GovernanceToken is ERC20Burnable, Ownable {\n\n    mapping(address => bool) private isMinter;\n\n    event ReturnedERC20(\n        address indexed token, \n        address indexed receiver, \n        uint amount\n    );\n    event MinterAdded(\n        address indexed caller, \n        address indexed minter, \n        uint timestamp\n    );\n    event MinterRemoved(\n        address indexed caller, \n        address indexed minter, \n        uint timestamp\n    );\n\n    constructor(\n        ) ERC20(\n            \"BNUG Governance Token\", \n            \"BNUGDAO\"\n        ) \n        Ownable() {}\n\n    function mintToken(\n        address _to, \n        uint _amount)\n        external {\n\n        require(\n            isMinter[msg.sender],\n            \"only minter allowed\"\n        );\n        \n        _mint(_to, _amount);\n\n    }\n\n    function returnERC20(\n        address _token, \n        address _to, \n        uint _amount) \n        external onlyOwner() {\n        \n        require(\n            _token != address(0), \n            \"invalid _token address\"\n        );\n        require(\n            _to != address(0), \n            \"invalid _to address\"\n        );\n        require(\n            IERC20(_token).balanceOf(\n                address(this)) >= _amount,\n            \"insufficient token balance\"\n        );\n\n        IERC20(_token).transfer(_to, _amount);  \n        emit ReturnedERC20(_token, _to, _amount);\n    }\n\n    function addMinter(\n        address _minter)\n        external onlyOwner() {\n        \n        _addMinter(_minter);\n    }\n\n    function removeMinter(\n        address _minter)\n        external onlyOwner() {\n        \n        _removeMinter(_minter);\n    }\n\n    function hasMinterRight(\n        address _addr)\n        external view returns(bool canMint) {\n        \n        return isMinter[_addr];\n    }\n\n    function _addMinter(\n        address _minter)\n        internal {\n        \n        require(\n            !isMinter[_minter], \n            \"_minter is already a minter\"\n        );\n        \n        require(\n            Address.isContract(_minter), \n            \"_minter must be a smart contract\"\n        );\n\n        isMinter[_minter] = true;\n        emit MinterAdded(msg.sender, _minter, block.timestamp);\n    }\n\n    function _removeMinter(\n        address _minter)\n        internal {\n        \n        require(\n            isMinter[_minter], \n            \"_minter is not a minter\"\n        );\n\n        isMinter[_minter] = false;\n        emit MinterRemoved(msg.sender, _minter, block.timestamp);\n    }\n}",
  "sourcePath": "/Users/hendobox/Desktop/THE GRIND/Blockchain Dev/gitrepo/bnugDAO.finance/contracts/GovernanceToken.sol",
  "compiler": {
    "name": "solc",
    "version": "0.8.4+commit.c7e474f2.Emscripten.clang"
  },
  "schemaVersion": "3.3.3",
  "updatedAt": "2021-09-01T22:20:05.487Z",
  "devdoc": {
    "kind": "dev",
    "methods": {
      "allowance(address,address)": {
        "details": "See {IERC20-allowance}."
      },
      "approve(address,uint256)": {
        "details": "See {IERC20-approve}. Requirements: - `spender` cannot be the zero address."
      },
      "balanceOf(address)": {
        "details": "See {IERC20-balanceOf}."
      },
      "burn(uint256)": {
        "details": "Destroys `amount` tokens from the caller. See {ERC20-_burn}."
      },
      "burnFrom(address,uint256)": {
        "details": "Destroys `amount` tokens from `account`, deducting from the caller's allowance. See {ERC20-_burn} and {ERC20-allowance}. Requirements: - the caller must have allowance for ``accounts``'s tokens of at least `amount`."
      },
      "decimals()": {
        "details": "Returns the number of decimals used to get its user representation. For example, if `decimals` equals `2`, a balance of `505` tokens should be displayed to a user as `5.05` (`505 / 10 ** 2`). Tokens usually opt for a value of 18, imitating the relationship between Ether and Wei. This is the value {ERC20} uses, unless this function is overridden; NOTE: This information is only used for _display_ purposes: it in no way affects any of the arithmetic of the contract, including {IERC20-balanceOf} and {IERC20-transfer}."
      },
      "decreaseAllowance(address,uint256)": {
        "details": "Atomically decreases the allowance granted to `spender` by the caller. This is an alternative to {approve} that can be used as a mitigation for problems described in {IERC20-approve}. Emits an {Approval} event indicating the updated allowance. Requirements: - `spender` cannot be the zero address. - `spender` must have allowance for the caller of at least `subtractedValue`."
      },
      "increaseAllowance(address,uint256)": {
        "details": "Atomically increases the allowance granted to `spender` by the caller. This is an alternative to {approve} that can be used as a mitigation for problems described in {IERC20-approve}. Emits an {Approval} event indicating the updated allowance. Requirements: - `spender` cannot be the zero address."
      },
      "name()": {
        "details": "Returns the name of the token."
      },
      "owner()": {
        "details": "Returns the address of the current owner."
      },
      "renounceOwnership()": {
        "details": "Leaves the contract without owner. It will not be possible to call `onlyOwner` functions anymore. Can only be called by the current owner. NOTE: Renouncing ownership will leave the contract without an owner, thereby removing any functionality that is only available to the owner."
      },
      "symbol()": {
        "details": "Returns the symbol of the token, usually a shorter version of the name."
      },
      "totalSupply()": {
        "details": "See {IERC20-totalSupply}."
      },
      "transfer(address,uint256)": {
        "details": "See {IERC20-transfer}. Requirements: - `recipient` cannot be the zero address. - the caller must have a balance of at least `amount`."
      },
      "transferFrom(address,address,uint256)": {
        "details": "See {IERC20-transferFrom}. Emits an {Approval} event indicating the updated allowance. This is not required by the EIP. See the note at the beginning of {ERC20}. Requirements: - `sender` and `recipient` cannot be the zero address. - `sender` must have a balance of at least `amount`. - the caller must have allowance for ``sender``'s tokens of at least `amount`."
      },
      "transferOwnership(address)": {
        "details": "Transfers ownership of the contract to a new account (`newOwner`). Can only be called by the current owner."
      }
    },
    "version": 1
  },
  "userdoc": {
    "kind": "user",
    "methods": {},
    "version": 1
  }
}